{
  "contractName": "Memecoin",
  "abi": [
    {
      "inputs": [],
      "stateMutability": "nonpayable",
      "type": "constructor"
    },
    {
      "anonymous": false,
      "inputs": [
        {
          "indexed": true,
          "internalType": "address",
          "name": "from",
          "type": "address"
        },
        {
          "indexed": true,
          "internalType": "address",
          "name": "to",
          "type": "address"
        },
        {
          "indexed": false,
          "internalType": "uint256",
          "name": "value",
          "type": "uint256"
        }
      ],
      "name": "Transfer",
      "type": "event"
    },
    {
      "inputs": [
        {
          "internalType": "address",
          "name": "",
          "type": "address"
        }
      ],
      "name": "Balances",
      "outputs": [
        {
          "internalType": "uint256",
          "name": "",
          "type": "uint256"
        }
      ],
      "stateMutability": "view",
      "type": "function",
      "constant": true
    },
    {
      "inputs": [],
      "name": "Total_Supply",
      "outputs": [
        {
          "internalType": "uint256",
          "name": "",
          "type": "uint256"
        }
      ],
      "stateMutability": "view",
      "type": "function",
      "constant": true
    },
    {
      "inputs": [],
      "name": "circulating_supply",
      "outputs": [
        {
          "internalType": "uint256",
          "name": "",
          "type": "uint256"
        }
      ],
      "stateMutability": "view",
      "type": "function",
      "constant": true
    },
    {
      "inputs": [],
      "name": "sayhello",
      "outputs": [
        {
          "internalType": "string",
          "name": "",
          "type": "string"
        }
      ],
      "stateMutability": "view",
      "type": "function",
      "constant": true
    },
    {
      "inputs": [
        {
          "internalType": "uint256",
          "name": "amount",
          "type": "uint256"
        }
      ],
      "name": "mint",
      "outputs": [],
      "stateMutability": "nonpayable",
      "type": "function"
    },
    {
      "inputs": [
        {
          "internalType": "uint256",
          "name": "amount",
          "type": "uint256"
        }
      ],
      "name": "burn",
      "outputs": [],
      "stateMutability": "nonpayable",
      "type": "function"
    },
    {
      "inputs": [],
      "name": "fetchValue",
      "outputs": [
        {
          "internalType": "uint256",
          "name": "",
          "type": "uint256"
        }
      ],
      "stateMutability": "view",
      "type": "function",
      "constant": true
    },
    {
      "inputs": [
        {
          "internalType": "address",
          "name": "account",
          "type": "address"
        }
      ],
      "name": "getBalance",
      "outputs": [
        {
          "internalType": "uint256",
          "name": "",
          "type": "uint256"
        }
      ],
      "stateMutability": "view",
      "type": "function",
      "constant": true
    },
    {
      "inputs": [
        {
          "internalType": "address",
          "name": "recipient",
          "type": "address"
        },
        {
          "internalType": "uint256",
          "name": "amount",
          "type": "uint256"
        }
      ],
      "name": "transfer",
      "outputs": [],
      "stateMutability": "nonpayable",
      "type": "function"
    },
    {
      "inputs": [
        {
          "internalType": "address",
          "name": "recipient",
          "type": "address"
        },
        {
          "internalType": "uint256",
          "name": "amount",
          "type": "uint256"
        }
      ],
      "name": "token_transaction",
      "outputs": [],
      "stateMutability": "nonpayable",
      "type": "function"
    }
  ],
  "bytecode": "0x60806040526040518060400160405280600881526020017f4d656d65636f696e000000000000000000000000000000000000000000000000815250600290816200004a9190620003ed565b506040518060400160405280600481526020017f4d454d450000000000000000000000000000000000000000000000000000000081525060039081620000919190620003ed565b506040518060400160405280600281526020017f313800000000000000000000000000000000000000000000000000000000000081525060049081620000d89190620003ed565b50620f42406005555f600655600554600755600654600855348015620000fc575f80fd5b50335f806101000a81548173ffffffffffffffffffffffffffffffffffffffff021916908373ffffffffffffffffffffffffffffffffffffffff1602179055506040518060400160405280600d81526020017f48656c6c6f2c20576f726c64210000000000000000000000000000000000000081525060019081620001829190620003ed565b50620004d1565b5f81519050919050565b7f4e487b71000000000000000000000000000000000000000000000000000000005f52604160045260245ffd5b7f4e487b71000000000000000000000000000000000000000000000000000000005f52602260045260245ffd5b5f60028204905060018216806200020557607f821691505b6020821081036200021b576200021a620001c0565b5b50919050565b5f819050815f5260205f209050919050565b5f6020601f8301049050919050565b5f82821b905092915050565b5f600883026200027f7fffffffffffffffffffffffffffffffffffffffffffffffffffffffffffffffff8262000242565b6200028b868362000242565b95508019841693508086168417925050509392505050565b5f819050919050565b5f819050919050565b5f620002d5620002cf620002c984620002a3565b620002ac565b620002a3565b9050919050565b5f819050919050565b620002f083620002b5565b62000308620002ff82620002dc565b8484546200024e565b825550505050565b5f90565b6200031e62000310565b6200032b818484620002e5565b505050565b5b818110156200035257620003465f8262000314565b60018101905062000331565b5050565b601f821115620003a1576200036b8162000221565b620003768462000233565b8101602085101562000386578190505b6200039e620003958562000233565b83018262000330565b50505b505050565b5f82821c905092915050565b5f620003c35f1984600802620003a6565b1980831691505092915050565b5f620003dd8383620003b2565b9150826002028217905092915050565b620003f88262000189565b67ffffffffffffffff81111562000414576200041362000193565b5b620004208254620001ed565b6200042d82828562000356565b5f60209050601f83116001811462000463575f84156200044e578287015190505b6200045a8582620003d0565b865550620004c9565b601f198416620004738662000221565b5f5b828110156200049c5784890151825560018201915060208501945060208101905062000475565b86831015620004bc5784890151620004b8601f891682620003b2565b8355505b6001600288020188555050505b505050505050565b610d2380620004df5f395ff3fe608060405234801561000f575f80fd5b506004361061009c575f3560e01c8063a8ec4c4211610064578063a8ec4c4214610132578063a9059cbb14610162578063e038c75a1461017e578063e7b3a1861461019c578063f8b2cb4f146101b85761009c565b806327a03cd7146100a0578063306d6e87146100be57806342966c68146100dc578063878170d1146100f8578063a0712d6814610116575b5f80fd5b6100a86101e8565b6040516100b591906108f0565b60405180910390f35b6100c6610278565b6040516100d39190610928565b60405180910390f35b6100f660048036038101906100f1919061096f565b61027e565b005b610100610374565b60405161010d9190610928565b60405180910390f35b610130600480360381019061012b919061096f565b61037d565b005b61014c600480360381019061014791906109f4565b610480565b6040516101599190610928565b60405180910390f35b61017c60048036038101906101779190610a1f565b610495565b005b6101866106b1565b6040516101939190610928565b60405180910390f35b6101b660048036038101906101b19190610a1f565b6106b7565b005b6101d260048036038101906101cd91906109f4565b610846565b6040516101df9190610928565b60405180910390f35b6060600180546101f790610a8a565b80601f016020809104026020016040519081016040528092919081815260200182805461022390610a8a565b801561026e5780601f106102455761010080835404028352916020019161026e565b820191905f5260205f20905b81548152906001019060200180831161025157829003601f168201915b5050505050905090565b60075481565b5f8054906101000a900473ffffffffffffffffffffffffffffffffffffffff1673ffffffffffffffffffffffffffffffffffffffff163373ffffffffffffffffffffffffffffffffffffffff161461030b576040517f08c379a000000000000000000000000000000000000000000000000000000000815260040161030290610b04565b60405180910390fd5b806008541015610350576040517f08c379a000000000000000000000000000000000000000000000000000000000815260040161034790610b6c565b60405180910390fd5b8060085f8282546103619190610bb7565b92505081905550610370610374565b5050565b5f600854905090565b5f8054906101000a900473ffffffffffffffffffffffffffffffffffffffff1673ffffffffffffffffffffffffffffffffffffffff163373ffffffffffffffffffffffffffffffffffffffff161461040a576040517f08c379a000000000000000000000000000000000000000000000000000000000815260040161040190610b04565b60405180910390fd5b6005548160085461041b9190610bea565b111561045c576040517f08c379a000000000000000000000000000000000000000000000000000000000815260040161045390610c67565b60405180910390fd5b8060085f82825461046d9190610bea565b9250508190555061047c610374565b5050565b6009602052805f5260405f205f915090505481565b5f8054906101000a900473ffffffffffffffffffffffffffffffffffffffff1673ffffffffffffffffffffffffffffffffffffffff163373ffffffffffffffffffffffffffffffffffffffff1614610522576040517f08c379a000000000000000000000000000000000000000000000000000000000815260040161051990610b04565b60405180910390fd5b8060095f3373ffffffffffffffffffffffffffffffffffffffff1673ffffffffffffffffffffffffffffffffffffffff1681526020019081526020015f205410156105a2576040517f08c379a000000000000000000000000000000000000000000000000000000000815260040161059990610ccf565b60405180910390fd5b8060095f3373ffffffffffffffffffffffffffffffffffffffff1673ffffffffffffffffffffffffffffffffffffffff1681526020019081526020015f205f8282546105ee9190610bb7565b925050819055508060095f8473ffffffffffffffffffffffffffffffffffffffff1673ffffffffffffffffffffffffffffffffffffffff1681526020019081526020015f205f8282546106419190610bea565b925050819055508173ffffffffffffffffffffffffffffffffffffffff163373ffffffffffffffffffffffffffffffffffffffff167fddf252ad1be2c89b69c2b068fc378daa952ba7f163c4a11628f55a4df523b3ef836040516106a59190610928565b60405180910390a35050565b60085481565b8060095f3373ffffffffffffffffffffffffffffffffffffffff1673ffffffffffffffffffffffffffffffffffffffff1681526020019081526020015f20541015610737576040517f08c379a000000000000000000000000000000000000000000000000000000000815260040161072e90610ccf565b60405180910390fd5b8060095f3373ffffffffffffffffffffffffffffffffffffffff1673ffffffffffffffffffffffffffffffffffffffff1681526020019081526020015f205f8282546107839190610bb7565b925050819055508060095f8473ffffffffffffffffffffffffffffffffffffffff1673ffffffffffffffffffffffffffffffffffffffff1681526020019081526020015f205f8282546107d69190610bea565b925050819055508173ffffffffffffffffffffffffffffffffffffffff163373ffffffffffffffffffffffffffffffffffffffff167fddf252ad1be2c89b69c2b068fc378daa952ba7f163c4a11628f55a4df523b3ef8360405161083a9190610928565b60405180910390a35050565b5f8173ffffffffffffffffffffffffffffffffffffffff16319050919050565b5f81519050919050565b5f82825260208201905092915050565b5f5b8381101561089d578082015181840152602081019050610882565b5f8484015250505050565b5f601f19601f8301169050919050565b5f6108c282610866565b6108cc8185610870565b93506108dc818560208601610880565b6108e5816108a8565b840191505092915050565b5f6020820190508181035f83015261090881846108b8565b905092915050565b5f819050919050565b61092281610910565b82525050565b5f60208201905061093b5f830184610919565b92915050565b5f80fd5b61094e81610910565b8114610958575f80fd5b50565b5f8135905061096981610945565b92915050565b5f6020828403121561098457610983610941565b5b5f6109918482850161095b565b91505092915050565b5f73ffffffffffffffffffffffffffffffffffffffff82169050919050565b5f6109c38261099a565b9050919050565b6109d3816109b9565b81146109dd575f80fd5b50565b5f813590506109ee816109ca565b92915050565b5f60208284031215610a0957610a08610941565b5b5f610a16848285016109e0565b91505092915050565b5f8060408385031215610a3557610a34610941565b5b5f610a42858286016109e0565b9250506020610a538582860161095b565b9150509250929050565b7f4e487b71000000000000000000000000000000000000000000000000000000005f52602260045260245ffd5b5f6002820490506001821680610aa157607f821691505b602082108103610ab457610ab3610a5d565b5b50919050565b7f43616c6c6572206973206e6f7420746865206f776e65720000000000000000005f82015250565b5f610aee601783610870565b9150610af982610aba565b602082019050919050565b5f6020820190508181035f830152610b1b81610ae2565b9050919050565b7f496e73756666696369656e7420737570706c7920746f206275726e00000000005f82015250565b5f610b56601b83610870565b9150610b6182610b22565b602082019050919050565b5f6020820190508181035f830152610b8381610b4a565b9050919050565b7f4e487b71000000000000000000000000000000000000000000000000000000005f52601160045260245ffd5b5f610bc182610910565b9150610bcc83610910565b9250828203905081811115610be457610be3610b8a565b5b92915050565b5f610bf482610910565b9150610bff83610910565b9250828201905080821115610c1757610c16610b8a565b5b92915050565b7f4578636565647320746f74616c20737570706c790000000000000000000000005f82015250565b5f610c51601483610870565b9150610c5c82610c1d565b602082019050919050565b5f6020820190508181035f830152610c7e81610c45565b9050919050565b7f496e73756666696369656e742062616c616e63650000000000000000000000005f82015250565b5f610cb9601483610870565b9150610cc482610c85565b602082019050919050565b5f6020820190508181035f830152610ce681610cad565b905091905056fea2646970667358221220e734d419bac7c0a7b5617331a0180265b90df0427245981989693e7f8106d97c64736f6c63430008150033",
  "immutableReferences": {},
  "source": "// SPDX-License-Identifier: MIT\npragma solidity >=0.5.0 <0.9.0;\nimport \"./memecoin_stuff/burning.sol\";\n\ncontract Memecoin { \n  address  owner;\n  string message;\n  string token_name = \"Memecoin\";\n  string token_symbol = \"MEME\";\n  string decimals = \"18\";\n  uint256 Token_supply = 1000000;\n  uint256 Circulating_supply = 0;\n  uint256 public Total_Supply = Token_supply;\n  uint256 public circulating_supply = Circulating_supply;\n\n  event Transfer(address indexed from, address indexed to, uint256 value);\n\n  modifier onlyOwner() {\n    require(msg.sender == owner, \"Caller is not the owner\");\n    _;\n  }\n  mapping(address => uint256)  public Balances;\n\n  constructor() \n  {\n    owner = msg.sender;\n    message = \"Hello, World!\";\n    \n  }\n  function sayhello() public view returns (string memory) {\n    return message;\n  }\n  //minting function\n  function mint(uint256 amount) public onlyOwner {\n    require(circulating_supply + amount <= Token_supply, \"Exceeds total supply\");\n    // uint newsupply = circulating_supply += amount;\n    // circulating_supply = new newsupply;\n    circulating_supply += amount;\n    fetchValue();\n\n  }\n  // burning function\n  function burn(uint256 amount) public onlyOwner {\n    require(circulating_supply >= amount, \"Insufficient supply to burn\");\n    circulating_supply -= amount;\n    fetchValue();\n  }\n  // Fetch the current value\n  function fetchValue() public view returns (uint256) {\n    return circulating_supply;\n}\n// fetch the address balance\nfunction getBalance(address account) public view returns (uint256) {\n    return account.balance; \n    }\n//transfer function\nfunction transfer(address recipient, uint256 amount) public onlyOwner {\n    require(Balances[msg.sender] >= amount, \"Insufficient balance\");\n    Balances[msg.sender] -= amount;\n    Balances[recipient] += amount;\n    emit Transfer(msg.sender, recipient, amount);\n\n}\n function token_transaction(address recipient, uint256 amount) public {\n    require(Balances[msg.sender] >= amount, \"Insufficient balance\");\n    Balances[msg.sender] -= amount;\n    Balances[recipient] += amount;\n    emit Transfer(msg.sender, recipient, amount); \n    }\n\n\n}\n",
  "sourcePath": "D:\\crypto_project\\smart-contract\\contract\\contracts\\memecoin.sol",
  "compiler": {
    "name": "solc",
    "version": "0.8.21+commit.d9974bed.Emscripten.clang"
  },
  "schemaVersion": "3.4.16",
  "updatedAt": "2025-09-20T07:21:16.136Z",
  "networkType": "ethereum",
  "devdoc": {
    "kind": "dev",
    "methods": {},
    "version": 1
  },
  "userdoc": {
    "kind": "user",
    "methods": {},
    "version": 1
  }
}